:100000000C945D000C9485000C9485000C94850084
:100010000C9485000C9485000C9485000C9485004C
:100020000C9485000C9485000C9485000C94760348
:100030000C9485000C9485000C9485000C9485002C
:100040000C942C030C9485000C94FA020C94D402AA
:100050000C9485000C9485000C9485000C9485000C
:100060000C9485000C94850000000008000201003B
:100070000003040700000000000000000000000072
:10008000250028002B0000000000240027002A0083
:10009000040404040404040402020202020203032E
:1000A0000303030301020408102040800102040836
:1000B0001020010204081020120611241FBECFEFE9
:1000C000D8E0DEBFCDBF22E0ACE4B1E001C01D92BC
:1000D000AD34B207E1F711E0A0E0B1E0E6E4F7E10A
:1000E00002C005900D92AC34B107D9F710E0CDE510
:1000F000D0E004C02197FE010E94750ACC35D107DB
:10010000C9F70E94D1060C94A10B0C940000E5E500
:10011000F1E0A089B18982E08C93A485B5851C9219
:10012000A685B7858FEC8C93108EA489B58986E05F
:100130008C93A289B3898C9180618C93A289B389B5
:100140008C9188608C93A289B3898C9180688C9300
:100150000288F389E02D80818F7D8083089590E06F
:10016000FC01EC55FF4F2491FC01E057FF4F8491B7
:10017000882399F090E0880F991FFC01EA57FF4F00
:10018000A591B491FC01E458FF4F859194918FB7EC
:10019000F894EC91E22BEC938FBF0895CF92DF920D
:1001A000EF92FF920F931F932FB7F894C0905101D5
:1001B000D0905201E0905301F09054012FBFDC0128
:1001C000CB018C0D9D1DAE1DBF1D4FB7F894009146
:1001D00051011091520120915301309154014FBFB0
:1001E0000C151D052E053F0528F080179107A20765
:1001F000B30758F71F910F91FF90EF90DF90CF90CA
:100200000895CF92DF92EF92FF920F931F93CF93B7
:10021000DF936C017A018B01C0E0D0E0CE15DF05E1
:1002200081F0D8016D918D01D601ED91FC91019085
:10023000F081E02DC6010995892B11F02196EECFB2
:100240007E01C701DF91CF911F910F91FF90EF9039
:10025000DF90CF900895089580E090E00895FC012C
:10026000538D448D252F30E0842F90E0821B930B1B
:10027000541710F0CF96089501970895FC01918DC1
:10028000828D981761F0828DDF01A80FB11D5D96F8
:100290008C91928D9F5F9F73928F90E008958FEF66
:1002A0009FEF0895FC01918D828D981731F0828D1A
:1002B000E80FF11D858D90E008958FEF9FEF089571
:1002C000FC01918D228D892F90E0805C9F4F821BD5
:1002D00091098F739927089585E591E00E94600147
:1002E00021E0892B09F420E0822F0895FC01848D00
:1002F000DF01A80FB11DA35ABF4F2C91848D90E050
:1003000001968F739927848FA689B7892C93A0892A
:10031000B1898C91837080648C93938D848D9813B4
:1003200006C00288F389E02D80818F7D8083089547
:10033000EF92FF920F931F93CF93DF93EC0181E035
:10034000888F9B8D8C8D981305C0E889F9898081F1
:1003500085FD26C0F62E0B8D10E00F5F1F4F0F732B
:100360001127E02E8C8DE8120CC00FB607FCFACFD7
:10037000E889F989808185FFF5CFCE010E94760159
:10038000F1CF8B8DFE01E80FF11DE35AFF4FF08294
:100390009FB7F8940B8FEA89FB89808180620AC03D
:1003A0009FB7F894EE89FF896083E889F989808195
:1003B0008370806480839FBF81E090E0DF91CF9164
:1003C0001F910F91FF90EF900895CF93DF93EC0171
:1003D000888D8823C9F0EA89FB89808185FD05C065
:1003E000A889B9898C9186FD0FC00FB607FCF5CF9F
:1003F000808185FFF2CFA889B9898C9185FFEDCFE7
:10040000CE010E947601E7CFDF91CF91089580E081
:1004100090E0892B29F00E946C0181110C9400005E
:10042000089590E0FC01E859FF4F2491FC01EC5540
:10043000FF4F3491FC01E057FF4FE491EE2309F4A4
:100440003CC0222339F1233091F038F42130A9F057
:10045000223001F584B58F7D12C0273091F028300D
:10046000A1F02430B9F4809180008F7D03C0809189
:1004700080008F77809380000DC084B58F7784BD16
:1004800009C08091B0008F7703C08091B0008F7D4C
:100490008093B000F0E0EE0FFF1FE458FF4FA591EE
:1004A000B4919FB7F894611104C08C9130953823B2
:1004B00002C0EC913E2B3C939FBF08953FB7F89448
:1004C00080914D0190914E01A0914F01B09150014A
:1004D00026B5A89B05C02F3F19F00196A11DB11D9F
:1004E0003FBFBA2FA92F982F8827820F911DA11DDA
:1004F000B11DBC01CD0142E0660F771F881F991F17
:100500004A95D1F708958F929F92AF92BF92CF9262
:10051000DF92EF92FF926B017C010E945E024B0121
:100520005C01C114D104E104F104F1F00E945E0207
:10053000DC01CB0188199909AA09BB09883E9340BF
:10054000A105B10570F321E0C21AD108E108F10854
:1005500088EE880E83E0981EA11CB11CC114D10442
:10056000E104F10419F7DDCFFF90EF90DF90CF9019
:10057000BF90AF909F908F9008950E949C0B611543
:10058000710579F0FB0101900020E9F73197AF0187
:10059000461B570BDC01ED91FC910280F381E02DAD
:1005A000099480E090E008951F920F920FB60F9289
:1005B00011242F933F934F935F936F937F938F9368
:1005C0009F93AF93BF93EF93FF9385E591E00E94D4
:1005D0007601FF91EF91BF91AF919F918F917F91A4
:1005E0006F915F914F913F912F910F900FBE0F90A0
:1005F0001F9018951F920F920FB60F9211242F93F0
:100600008F939F93EF93FF93E0916501F0916601C3
:100610008081E0916B01F0916C0182FD12C09081AC
:1006200080916E018F5F8F7320916F01821751F05F
:10063000E0916E01F0E0EB5AFE4F958F80936E01D2
:1006400001C08081FF91EF919F918F912F910F9029
:100650000FBE0F901F9018951F920F920FB60F921A
:1006600011242F933F938F939F93AF93BF938091C8
:10067000510190915201A0915301B09154013091D8
:100680004C0123E0230F2D3720F40196A11DB11D4D
:1006900005C026E8230F0296A11DB11D20934C0131
:1006A0008093510190935201A0935301B093540150
:1006B00080914D0190914E01A0914F01B091500158
:1006C0000196A11DB11D80934D0190934E01A09301
:1006D0004F01B0935001BF91AF919F918F913F9186
:1006E0002F910F900FBE0F901F9018951F920F9291
:1006F0000FB60F9211242F923F924F925F926F92FA
:100700007F928F929F92AF92BF92CF92DF92EF92A1
:10071000FF920F931F932F933F934F935F936F938A
:100720007F938F939F93AF93BF93EF93FF93CF9359
:10073000DF9300D000D0CDB7DEB7F89420913A0215
:1007400030913B023A83298320E030E040E050E0E2
:10075000A981BA8111968C9190E0481759075CF0F5
:1007600000E010E0212C312CF0E68F2EFAEE9F2EC7
:10077000A12CB12CD8C0A981BA811296ED91FC911F
:100780001397E20FF31F80818E3008F08E50877030
:10079000806480937C0080917A00806480937A00EA
:1007A00080917A0086FDFCCF80917800609179007D
:1007B00090E0962B918780874F5F5F4F245C3F4F7F
:1007C000C7CF22813381200F311F3C832B83D90176
:1007D000D0964D905D906D907C90D397F901808D6F
:1007E000918DA28DB38D480E591E6A1E7B1E40AAA4
:1007F00051AA62AA73AA84899589A689B7897201C8
:10080000E81AF90A868597850C97978786878685E3
:10081000978597FD91C086859785873F99400CF015
:100820008EC0D9011E968D919C911F97EB81FC8102
:100830009787868780859185C0ACD1AC8C159D0546
:100840000CF480C0EB81FC8180859185C816D906A7
:100850000CF488C0FBEFEF16F1040CF4BFC0AB81C1
:10086000BC8118968D919C911997C816D9060CF0E9
:10087000B5C01C968C911C978111B0C01A968D91B1
:100880009C911B9765E070E00E94420ACB01880FA3
:10089000991F680F791F6E157F050CF09FC0E1E06E
:1008A000AB81BC811C96EC931C97FD0184899589D2
:1008B000A689B7899201281B390B33872287448A7E
:1008C000558A668A778A83AD882391F0EB81FC8113
:1008D00013AE7C968B819C81C096AB81BC811A96AD
:1008E0002D913C911B97219331938E179F07A9F768
:1008F000EB81FC8182AD8823F1F112AE21E023AFC0
:10090000AB81BC8112968D919C91139797FFA8C0E3
:10091000EB81FC81E480F580F7FEACC0BFEF2B1AC1
:100920003B0A045C1F4FE981FA81818190E028161F
:1009300039060CF446CF08C180E090E077CF86EF0F
:1009400099E074CF8285938565E070E00E94420A49
:10095000CB01880F991F680F791F6E157F050CF466
:100960001FC170CF2085318584A995A9821793076F
:100970000CF42FC16FCFEB81FC817C964B815C81A5
:10098000425D5F4F80E090E022813381219331937B
:10099000820F931F4E175F07B9F7AB81BC811A9680
:1009A0002D913C911B979F963C932E939E97820F7F
:1009B000931F6AE070E00E942E0A9B0140E050E025
:1009C000C501B4010E94560AEB81FC81378326835E
:1009D00021E0258786EF99E097878687AB81BC81E8
:1009E00018968D919C9119978C159D0524F41C9651
:1009F0008C918111F5C0B5ECEB16B9E0FB060CF457
:100A00007FCFEB81FC818089918991AF80AF20E01D
:100A100032E035AB24AB37AB26ABDF01448A558AD5
:100A2000668A778AE1E0DA96EC93DA97DB961C9295
:100A3000DB971D961C921D9717961C921E92169777
:100A400028E532E01B963C932E931A971C961C9235
:100A50001C9784E690E053969C938E93529750CFC8
:100A60001C962C91222311F061E001C060E00E94ED
:100A700011024ECF868597856AE070E00E94420A97
:100A80007C836B838E2D0E94AF002B813C81232BB6
:100A900009F453C08B819C818F3F910509F44FC0AD
:100AA000F701FF27E859FF4FE491E33019F150F4C3
:100AB000E130D1F0E230E1F584B5806284BDAB81F4
:100AC000A8BD2CCFE73011F1E83049F1E43081F5D1
:100AD000809180008062809380002B813C813093E4
:100AE0008B0020938A001ACF84B5806884BD9B81D7
:100AF00097BD14CF80918000806880938000EB8147
:100B0000FC81F0938900E093880008CF8091B000C9
:100B100080688093B0003B813093B300FFCE80911A
:100B2000B00080628093B0008B818093B400F6CED9
:100B3000AB81BC81A038B10514F460E001C061E074
:100B40008E2D0E941102EACE81E0E981FA81808730
:100B500078940F900F900F900F90DF91CF91FF91AD
:100B6000EF91BF91AF919F918F917F916F915F9125
:100B70004F913F912F911F910F91FF90EF90DF9038
:100B8000CF90BF90AF909F908F907F906F905F902D
:100B90004F903F902F900F900FBE0F901F90189581
:100BA000AB81BC8118962D913C911997D6968D9169
:100BB0009C91D797281739070CF044CEAB81BC81A4
:100BC00018968D919C911997D7969C938E93D69752
:100BD00039CEEB81FC818085918595AB84AB3ACE93
:100BE000EB81FC81148626A937A984A995A9821BCB
:100BF000930B938B828B8289938997FD01969595B0
:100C00008795820F931FAB81BC81D9969C938E935D
:100C1000D897D5969C938E93D497D7969C938E9382
:100C2000D697E9CE109258011092570188EE93E0C2
:100C3000A0E0B0E08093590190935A01A0935B012A
:100C4000B0935C018AE091E0909356018093550146
:100C500085EC90E0909362018093610184EC90E0D8
:100C6000909364018093630180EC90E0909366011F
:100C70008093650181EC90E0909368018093670117
:100C800082EC90E090936A018093690186EC90E099
:100C900090936C0180936B0110926E0110926F0122
:100CA00010927001109271011092F8011092F901E6
:100CB0001092FA011092FB011092FC011092FD01BA
:100CC0001092FE011092FF01109200021092010298
:100CD0001092020210920302109204021092050276
:100CE00010920602109207021092460210924502DC
:100CF00082E090E090934802809347028CE392E078
:100D000090933B0280933A0281E080933D028CE312
:100D100090E00E947B0AFC018EE090E0918380834A
:100D20008FEF9FEF938382839583848382E090E0AB
:100D3000A0E0B0E0808F918FA28FB38FDF015C962F
:100D4000CF01C0961D921D92A817B907D9F7158635
:100D5000178216828EEE92E093878287148610AAFD
:100D600011AA12AA13AA148A158A168A178A80E071
:100D700092E095AB84AB97AB86AB86E292E0918B29
:100D8000808B91AF80AF84E690E0938B828B81E083
:100D900082AF13AE17861686F0933F02E0933E02B1
:100DA0000895CF93DF93CDB7DEB7A1970FB6F89430
:100DB000DEBF0FBECDBF789484B5826084BD84B59C
:100DC000816084BD85B5826085BD85B5816085BD46
:100DD00080916E00816080936E00109281008091FE
:100DE0008100826080938100809181008160809386
:100DF0008100809180008160809380008091B100AB
:100E000084608093B1008091B00081608093B000D5
:100E100080917A00846080937A0080917A00826069
:100E200080937A0080917A00816080937A0080912B
:100E30007A00806880937A001092C1001092360286
:100E40001092370210923802109239021092F40177
:100E50001092F5011092F6011092F70168EB7BE019
:100E600080E090E00E94CE0085E591E0909335020D
:100E7000809334020E9487002FB7F894809151012B
:100E800090915201A0915301B09154012FBF8093D2
:100E9000F4019093F501A093F601B093F70168E196
:100EA00071E080913402909135020E94BF026AE0A5
:100EB00070E080E090E00E94CE0081E08093080224
:100EC0000E94870060ED77E080E090E00E9483025E
:100ED000E0913E02F0913F028FE090E091838083A9
:100EE000F89486E292E0918B808B91AF80AF7894FA
:100EF00082E00E94AF0061E082E00E94110283E084
:100F00000E94AF0061E083E00E94110288E00E942D
:100F1000AF0061E088E00E94110260E088E00E947A
:100F2000110261E089E00E94110264E670E080E055
:100F300090E00E94830260E089E00E94110264E672
:100F400070E080E090E00E94830261E08AE00E940D
:100F5000110264E670E080E090E00E94830260E0AD
:100F60008AE00E94110264E670E080E090E00E9456
:100F7000830261E08BE00E94110264E670E080E091
:100F800090E00E94830260E08BE00E94110264E620
:100F900070E080E090E00E94830261E08AE00E94BD
:100FA000110264E670E080E090E00E94830260E05D
:100FB0008AE00E94110264E670E080E090E00E9406
:100FC000830261E089E00E94110264E670E080E043
:100FD00090E00E94830260E089E00E94110264E6D2
:100FE00070E080E090E00E94830261E08AE00E946D
:100FF000110264E670E080E090E00E94830260E00D
:101000008AE00E94110264E670E080E090E00E94B5
:10101000830261E08BE00E94110264E670E080E0F0
:1010200090E00E94830260E08BE00E94110264E67F
:1010300070E080E090E00E94830261E08AE00E941C
:10104000110264E670E080E090E00E94830260E0BC
:101050008AE00E94110264E670E080E090E00E9465
:10106000830261E089E00E94110264E670E080E0A2
:1010700090E00E94830260E089E00E94110264E631
:1010800070E080E090E00E94830261E08AE00E94CC
:10109000110264E670E080E090E00E94830260E06C
:1010A0008AE00E94110264E670E080E090E00E9415
:1010B000830261E08BE00E94110264E670E080E050
:1010C00090E00E94830260E08BE00E94110264E6DF
:1010D00070E080E090E00E94830261E08AE00E947C
:1010E000110264E670E080E090E00E94830260E01C
:1010F0008AE00E94110264E670E080E090E00E94C5
:10110000830261E089E00E94110264E670E080E001
:1011100090E00E94830260E089E00E94110264E690
:1011200070E080E090E00E94830261E08AE00E942B
:10113000110264E670E080E090E00E94830260E0CB
:101140008AE00E94110264E670E080E090E00E9474
:10115000830261E08BE00E94110264E670E080E0AF
:1011600090E00E94830260E08BE00E94110264E63E
:1011700070E080E090E00E94830261E08AE00E94DB
:10118000110264E670E080E090E00E94830260E07B
:101190008AE00E94110264E670E080E090E00E9424
:1011A0008302E12CF12CC12CD12C80913D0290E0E6
:1011B000C816D9064CF500913E0210913F020E0D63
:1011C0001F1DF8018281938197FD07C00E94AF0027
:1011D00060E0F80182810E941102F801848195810A
:1011E00097FD0BC00E94AF00F8011481812F0E946F
:1011F000AF0060E0812F0E941102FFEFCF1ADF0ADB
:101200008CE3E80EF11CD1CF0E945E02DC01CB0121
:101210008053984FAF4FBF4F80934002909341024D
:10122000A0934202B09343021092440210923C02F7
:1012300010928000109282008CE0809381008CE7F5
:1012400090E0909389008093880082E080936F0003
:10125000789468EE73E080E090E00E94830260E0A2
:101260008BE00E94110260E08AE00E94110260E0BF
:1012700089E00E9411026AE271E085E591E00E9436
:10128000BF0267E271E085E591E00E94BF0261E084
:1012900088E00E94110264E670E080E090E00E9425
:1012A000830260E088E00E94110264E670E080E062
:1012B00090E00E94830261E088E00E94110264E6EF
:1012C00070E080E090E00E94830260E088E00E948D
:1012D000110264E670E080E090E00E94830261E029
:1012E00088E00E94110264E670E080E090E00E94D5
:1012F000830260E088E00E9411028AE0882E912C2F
:10130000A12CB12CE0913E02F0913F0206811781A1
:10131000F894858515867894882309F451C061E492
:1013200071E085E591E00E94BF026801012E000C8A
:10133000EE08FF08F7FE20C06DE285E591E00E940F
:10134000980122273327A9012C193D094E095F096D
:1013500019A2FE01B1967F01CA01B901A50194014C
:101360000E940C0A605DF70162937F01211531052F
:101370004105510589F715C0A701960119A2CE01B3
:1013800081967C01CA01B901A50194010E940C0A51
:10139000605DF70162937F0121153105410551051B
:1013A00089F7B70185E591E00E94BF0267E271E02D
:1013B00085E591E00E94BF0261E089E00E94110290
:1013C0000B3F110544F060E089E00E94110261E0EA
:1013D0008AE00E94110260E082E00E94110260E057
:1013E00083E00E94110260E089E00E94110261E046
:1013F0008AE00E94110260E08BE00E94110260E02E
:1014000088E00E94110268EE73E080E090E00E94A4
:1014100083020E94070276CFA1E21A2EAA1BBB1BF1
:10142000FD010DC0AA1FBB1FEE1FFF1FA217B307B0
:10143000E407F50720F0A21BB30BE40BF50B661FC6
:10144000771F881F991F1A9469F76095709580958A
:1014500090959B01AC01BD01CF010895AA1BBB1B58
:1014600051E107C0AA1FBB1FA617B70710F0A61BA4
:10147000B70B881F991F5A95A9F780959095BC01C5
:10148000CD01089597FB072E16F4009407D077FD41
:1014900009D00E942E0A07FC05D03EF49095819554
:1014A0009F4F0895709561957F4F0895052E97FB86
:1014B0001EF400940E946D0A57FD07D00E940C0A8A
:1014C00007FC03D04EF40C946D0A5095409530956E
:1014D00021953F4F4F4F5F4F0895909580957095A0
:1014E00061957F4F8F4F9F4F0895EE0FFF1F05901F
:1014F000F491E02D09940F931F93CF93DF938230E3
:10150000910510F482E090E0E0914B02F0914C02E2
:1015100020E030E0A0E0B0E0309719F14081518147
:101520000281138148175907C8F08417950769F499
:10153000109731F012960C93129713961C9327C0B4
:1015400000934B0210934C0222C02115310519F073
:101550004217530718F49A01BD01EF01DF01F801AA
:10156000DBCF21153105F9F0281B390B243031056B
:1015700080F48A819B816115710521F0FB019383C1
:10158000828304C090934C0280934B02FE013296FA
:1015900044C0FE01E20FF31F819391932250310961
:1015A000398328833AC02091490230914A02232B83
:1015B00041F4209102013091030130934A022093BB
:1015C000490220910001309101012115310541F4BA
:1015D0002DB73EB74091040150910501241B350BF6
:1015E000E0914902F0914A02E217F307A0F42E1BA2
:1015F0003F0B2817390778F0AC014E5F5F4F241777
:10160000350748F04E0F5F1F50934A02409349023E
:101610008193919302C0E0E0F0E0CF01DF91CF91A0
:101620001F910F910895CF93DF93009709F481C024
:10163000FC01329713821282A0914B02B0914C02AE
:10164000109781F420813181820F931F20914902EC
:1016500030914A022817390751F5F0934A02E09376
:10166000490267C0ED0120E030E0CE17DF0740F40B
:101670004A815B819E0141155105F1F0EA01F5CFE8
:10168000D383C28340815181840F951FC817D90726
:1016900059F488819981840F951F029691838083E4
:1016A0008A819B81938382832115310529F4F093EC
:1016B0004C02E0934B023DC0E901FB83EA83499170
:1016C0005991C40FD51FEC17FD0761F480819181FA
:1016D000840F951F0296E901998388838281938103
:1016E0009B838A83E0E0F0E012968D919C911397A2
:1016F000009719F0FD01DC01F7CF8D919C911197B6
:101700009D012E5F3F4F820F931F20914902309120
:101710004A022817390769F4309729F410924C02CD
:1017200010924B0202C013821282B0934A02A0931D
:101730004902DF91CF91089581E090E0F8940C94F4
:06174000A10BF894FFCF9D
:1017460000004D02800000000000980101012F01F9
:10175600E50160013E015201564D4450565F317C11
:10176600315F564D4450560D0A0053656E736F72C5
:101776002048617320496E697469616C697A656491
:0C178600002D2D2D2D2D42504D3A20003D
:00000001FF
