:100000000C945D000C9485000C9485000C94850084
:100010000C9485000C9485000C9485000C9485004C
:100020000C9485000C9485000C9485000C94D202ED
:100030000C9485000C9485000C9485000C9485002C
:100040000C9488020C9485000C9456020C94300297
:100050000C9485000C9485000C9485000C9485000C
:100060000C9485000C94850000000008000201003B
:100070000003040700000000000000000000000072
:10008000250028002B0000000000240027002A0083
:10009000040404040404040402020202020203032E
:1000A0000303030301020408102040800102040836
:1000B0001020010204081020E50911241FBECFEF13
:1000C000D8E0DEBFCDBF22E0AAE5B1E001C01D92BD
:1000D000AD35B207E1F711E0A0E0B1E0E6E7F8E105
:1000E00002C005900D92AA35B107D9F710E0CDE511
:1000F000D0E004C02197FE010E940D0BCC35D10742
:10010000C9F70E94A0060C94390C0C9400000895C5
:1001100080E090E00895FC01538D448D252F30E060
:10012000842F90E0821B930B541710F0CF96089504
:1001300001970895FC01918D828D981761F0828D51
:10014000DF01A80FB11D5D968C91928D9F5F9F730B
:10015000928F90E008958FEF9FEF0895FC01918DAD
:10016000828D981731F0828DE80FF11D858D90E01A
:1001700008958FEF9FEF0895FC01918D228D892FB7
:1001800090E0805C9F4F821B91098F73992708959F
:1001900085E691E00E94BC0021E0892B09F420E073
:1001A000822F0895FC01848DDF01A80FB11DA35A91
:1001B000BF4F2C91848D90E001968F739927848F87
:1001C000A689B7892C93A089B1898C9183708064AA
:1001D0008C93938D848D981306C00288F389E02D4B
:1001E00080818F7D80830895EF92FF920F931F93FC
:1001F000CF93DF93EC0181E0888F9B8D8C8D9813DA
:1002000005C0E889F989808185FD26C0F62E0B8D11
:1002100010E00F5F1F4F0F731127E02E8C8DE81237
:100220000CC00FB607FCFACFE889F989808185FFF9
:10023000F5CFCE010E94D200F1CF8B8DFE01E80FE9
:10024000F11DE35AFF4FF0829FB7F8940B8FEA89B4
:10025000FB89808180620AC09FB7F894EE89FF898C
:100260006083E889F98980818370806480839FBF7F
:1002700081E090E0DF91CF911F910F91FF90EF907F
:100280000895CF93DF93EC01888D8823C9F0EA8924
:10029000FB89808185FD05C0A889B9898C9186FD7F
:1002A0000FC00FB607FCF5CF808185FFF2CFA8897C
:1002B000B9898C9185FFEDCFCE010E94D200E7CFA6
:1002C000DF91CF91089580E090E0892B29F00E9482
:1002D000C80081110C940000089590E0FC01E859D9
:1002E000FF4F2491FC01EC55FF4F3491FC01E05786
:1002F000FF4FE491EE2309F43CC0222339F123306F
:1003000091F038F42130A9F0223001F584B58F7DC9
:1003100012C0273091F02830A1F02430B9F4809138
:1003200080008F7D03C0809180008F778093800054
:100330000DC084B58F7784BD09C08091B0008F77E0
:1003400003C08091B0008F7D8093B000F0E0EE0F8D
:10035000FF1FE458FF4FA591B4919FB7F894611126
:1003600004C08C913095382302C0EC913E2B3C9315
:100370009FBF08958E3008F08E5087708064809300
:100380007C0080917A00806480937A0080917A006A
:1003900086FDFCCF809178002091790090E0922B2F
:1003A00008953FB7F89480915B0190915C01A09112
:1003B0005D01B0915E0126B5A89B05C02F3F19F0E5
:1003C0000196A11DB11D3FBFBA2FA92F982F8827D5
:1003D000820F911DA11DB11DBC01CD0142E0660F30
:1003E000771F881F991F4A95D1F708958F929F9282
:1003F000AF92BF92CF92DF92EF92FF926B017C019E
:100400000E94D1014B015C01C114D104E104F1044B
:10041000F1F00E94D101DC01CB0188199909AA09E8
:10042000BB09883E9340A105B10570F321E0C21AD3
:10043000D108E108F10888EE880E83E0981EA11C1F
:10044000B11CC114D104E104F10419F7DDCFFF9010
:10045000EF90DF90CF90BF90AF909F908F900895D6
:100460001F920F920FB60F9211242F933F934F9329
:100470005F936F937F938F939F93AF93BF93EF930C
:10048000FF9385E691E00E94D200FF91EF91BF912A
:10049000AF919F918F917F916F915F914F913F911C
:1004A0002F910F900FBE0F901F9018951F920F92D3
:1004B0000FB60F9211242F938F939F93EF93FF9377
:1004C000E0917501F09176018081E0917B01F091DE
:1004D0007C0182FD12C0908180917E018F5F8F73BD
:1004E00020917F01821751F0E0917E01F0E0EB59FD
:1004F000FE4F958F80937E0101C08081FF91EF9127
:100500009F918F912F910F900FBE0F901F90189574
:100510001F920F920FB60F9211242F933F938F9338
:100520009F93AF93BF938091610190916201A091DD
:100530006301B091640130915A0123E0230F2D37FC
:1005400020F40196A11DB11D05C026E8230F0296D7
:10055000A11DB11D20935A01809361019093620106
:10056000A0936301B093640180915B0190915C0161
:10057000A0915D01B0915E010196A11DB11D809316
:100580005B0190935C01A0935D01B0935E01BF910C
:10059000AF919F918F913F912F910F900FBE0F9030
:1005A0001F9018951F920F920FB60F9211242F9241
:1005B0003F924F925F926F927F928F929F92AF92F3
:1005C000BF92CF92DF92EF92FF920F931F932F93E0
:1005D0003F934F935F936F937F938F939F93AF93CB
:1005E000BF93EF93FF93CF93DF9300D000D0CDB7AD
:1005F000DEB7F89420914A0230914B023A83298366
:10060000E12CF12CC12CD12CA981BA8111968C91AD
:1006100090E0C816D9065CF000E010E0212C312CE7
:10062000F0E68F2EFAEE9F2EA12CB12CCBC0E981E3
:10063000FA810280F381E02DEE0DFF1DFC83EB8338
:1006400080810E94BA01AB81BC8119969C938E93E4
:100650001897BFEFCB1ADB0AECE3EE0EF11CD4CFF8
:100660001296ED91FC911397E00FF11FFC83EB8341
:1006700040A851A862A873A8808D918DA28DB38DDA
:10068000480E591E6A1E7B1E40AA51AA62AA73AA6E
:1006900084899589A689B7897201E81AF90A86853D
:1006A00097850C97978786878685978597FD95C050
:1006B00086859785873F99400CF092C0AB81BC81BD
:1006C0001E968D919C911F97EB81FC819787868761
:1006D00080859185C0ACD1AC8C159D050CF483C090
:1006E000EB81FC8180859185C816D9060CF48BC0FE
:1006F000FBEFEF16F1040CF4C2C0AB81BC8118967D
:100700008D919C911997C816D9060CF0B8C01C960B
:100710008C911C978111B3C01A968D919C911B9757
:1007200065E070E00E94DA0ACB01880F991F680F1C
:10073000791F6E157F050CF0A2C0E1E0AB81BC8192
:100740001C96EC931C97FD0184899589A689B7892D
:100750009201281B390B33872287448A558A668A7F
:10076000778A83AD882391F0EB81FC8113AE7C9670
:100770008B819C81C096AB81BC811A962D913C9156
:100780001B97219331938E179F07A9F7EB81FC816B
:1007900082AD882309F440C012AE21E023AFAB81C3
:1007A000BC8112968D919C91139797FFAAC0EB8103
:1007B000FC81E480F580F7FEAEC0BFEF2B1A3B0A48
:1007C000045C1F4FA981BA8111968C91119790E01A
:1007D000281639060CF444CF08C180E090E074CFAD
:1007E00086EF99E071CF8285938565E070E00E9485
:1007F000DA0ACB01880F991F680F791F6E157F05E4
:100800000CF41FC16DCF2085318584A995A982176D
:1008100093070CF42FC16CCFEB81FC817C964B814C
:100820005C81425D5F4F80E090E0228133812193C3
:100830003193820F931F4E175F07B9F7AB81BC81CD
:100840001A962D913C911B979F963C932E939E97C1
:10085000820F931F6AE070E00E94C60A9B0140E08D
:1008600050E0C501B4010E94EE0AEB81FC813783A0
:10087000268321E0258786EF99E097878687AB81DD
:10088000BC8118968D919C9119978C159D0524F427
:100890001C968C918111F5C0B5ECEB16B9E0FB0606
:1008A0000CF47DCFEB81FC818089918991AF80AF81
:1008B00020E032E035AB24AB37AB26ABDF01448A16
:1008C000558A668A778AE1E0DA96EC93DA97DB96C6
:1008D0001C92DB971D961C921D9717961C921E92D8
:1008E000169728E532E01B963C932E931A971C9698
:1008F0001C921C9784E690E053969C938E9352979B
:100900004ECF1C962C91222311F061E001C060E0D3
:100910000E946D014CCF868597856AE070E00E9449
:10092000DA0A7C836B838E2D0E94B7052B813C8174
:10093000232B09F453C08B819C818F3F910509F4CF
:100940004FC0F701FF27E859FF4FE491E33019F159
:1009500050F4E130D1F0E230E1F584B5806284BD3D
:10096000AB81A8BD2ACFE73011F1E83049F1E4307E
:1009700081F5809180008062809380002B813C8192
:1009800030938B0020938A0018CF84B5806884BD93
:100990009B8197BD12CF80918000806880938000FA
:1009A000EB81FC81F0938900E093880006CF809171
:1009B000B00080688093B0003B813093B300FDCEDF
:1009C0008091B00080628093B0008B818093B400EE
:1009D000F4CEAB81BC81A038B10514F460E001C055
:1009E00061E08E2D0E946D01E8CE81E0E981FA81FF
:1009F000808778940F900F900F900F90DF91CF9198
:100A0000FF91EF91BF91AF919F918F917F916F91E6
:100A10005F914F913F912F911F910F91FF90EF9018
:100A2000DF90CF90BF90AF909F908F907F906F900E
:100A30005F904F903F902F900F900FBE0F901F90A0
:100A40001895AB81BC8118962D913C911997D6963B
:100A50008D919C91D797281739070CF041CEAB8127
:100A6000BC8118968D919C911997D7969C938E93E3
:100A7000D69736CEEB81FC818085918595AB84AB92
:100A800037CEEB81FC81148626A937A984A995A9C4
:100A9000821B930B938B828B8289938997FD01969E
:100AA00095958795820F931FAB81BC81D9969C93B6
:100AB0008E93D897D5969C938E93D497D7969C93E4
:100AC0008E93D697E9CECF92DF92EF92FF920F935B
:100AD0001F93CF93DF936C017A018B01C0E0D0E0CC
:100AE000CE15DF0581F0D8016D918D01D601ED9114
:100AF000FC910190F081E02DC6010995892B11F040
:100B00002196EECF7E01C701DF91CF911F910F910A
:100B1000FF90EF90DF90CF9008950E94340CE5E6AF
:100B2000F1E0A089B18982E08C93A485B5851C92FF
:100B3000A685B7858FEC8C93108EA489B58986E045
:100B40008C93A289B3898C9180618C93A289B3899B
:100B50008C9188608C93A289B3898C9180688C93E6
:100B60000288F389E02D80818F7D8083089590E055
:100B7000FC01EC55FF4F2491FC01E057FF4F84919D
:100B8000882399F090E0880F991FFC01EA57FF4FE6
:100B9000A591B491FC01E458FF4F859194918FB7D2
:100BA000F894EC91E22BEC938FBF0895CF92DF92F3
:100BB000EF92FF920F931F932FB7F894C0906101AB
:100BC000D0906201E0906301F09064012FBFDC01DE
:100BD000CB018C0D9D1DAE1DBF1D4FB7F89400912C
:100BE00061011091620120916301309164014FBF56
:100BF0000C151D052E053F0528F080179107A2074B
:100C0000B30758F71F910F91FF90EF90DF90CF90AF
:100C100008956115710579F0FB0101900020E9F755
:100C20003197AF01461B570BDC01ED91FC9102801F
:100C3000F381E02D099480E090E008958F929F92D7
:100C4000AF92BF92CF92DF92EF92FF920F931F93DA
:100C5000CF93DF93CDB7DEB7A1970FB6F894DEBF81
:100C60000FBECDBF6C01990FEE08FF08F7FE2DC037
:100C70006DE285E691E00E94F4008C012227332783
:100C8000A9012C193D094E095F0919A2CE018196CF
:100C90007C019AE0892E912CA12CB12CCA01B901BA
:100CA000A50194010E94A40A605DF70162937F018F
:100CB000211531054105510589F7BF0185E691E010
:100CC0000E940906080F191F20C0A701960119A24A
:100CD0008E010F5D1F4F8AE0C82ED12CE12CF12C24
:100CE000CA01B901A70196010E94A40A605DF8013A
:100CF00062938F01211531054105510589F7BF0127
:100D000085E691E00E9409068C0167E271E085E6C4
:100D100091E00E940906800F911FA1960FB6F894EA
:100D2000DEBF0FBECDBFDF91CF911F910F91FF901E
:100D3000EF90DF90CF90BF90AF909F908F900895ED
:100D4000789484B5826084BD84B5816084BD85B5A6
:100D5000826085BD85B5816085BD80916E008160B2
:100D600080936E0010928100809181008260809358
:100D7000810080918100816080938100809180005A
:100D80008160809380008091B10084608093B10085
:100D90008091B00081608093B00080917A0084607F
:100DA00080937A0080917A00826080937A008091AB
:100DB0007A00816080937A0080917A0080688093C5
:100DC0007A001092C10010924602109247021092CF
:100DD00048021092490210920402109205021092E9
:100DE00006021092070268EB7BE080E090E00E9430
:100DF000D60585E691E090934502809344020E94D7
:100E00008F0568E171E080914402909145020E9453
:100E100009066AE070E080E090E00E94D60581E07B
:100E2000809318020E948F0560ED77E080E090E0EB
:100E30000E94F601E0914E02F0914F028FE090E0A7
:100E400091838083F89486E292E0918B808B91AFBE
:100E500080AF789489E00E94B70561E089E00E9444
:100E60006D0185E00E94B70561E085E00E946D019B
:100E700060E085E00E946D01C4EFD1E08EE00E9449
:100E8000BA019093600180935F0165E070E080E0BB
:100E900090E00E94F601219789F761E088E00E94C6
:100EA0006D0164E670E080E090E00E94F60160E091
:100EB00088E00E946D0164E670E080E090E00E94AE
:100EC000F60161E087E00E946D0164E670E080E079
:100ED00090E00E94F60160E087E00E946D0164E608
:100EE00070E080E090E00E94F60161E086E00E9400
:100EF0006D0164E670E080E090E00E94F60160E041
:100F000086E00E946D0164E670E080E090E00E945F
:100F1000F60161E087E00E946D0164E670E080E028
:100F200090E00E94F60160E087E00E946D0164E6B7
:100F300070E080E090E00E94F60161E088E00E94AD
:100F40006D0164E670E080E090E00E94F60160E0F0
:100F500088E00E946D0164E670E080E090E00E940D
:100F6000F60161E087E00E946D0164E670E080E0D8
:100F700090E00E94F60160E087E00E946D0164E667
:100F800070E080E090E00E94F60161E086E00E945F
:100F90006D0164E670E080E090E00E94F60160E0A0
:100FA00086E00E946D0164E670E080E090E00E94BF
:100FB000F60161E087E00E946D0164E670E080E088
:100FC00090E00E94F60160E087E00E946D0164E617
:100FD00070E080E090E00E94F60161E088E00E940D
:100FE0006D0164E670E080E090E00E94F60160E050
:100FF00088E00E946D0164E670E080E090E00E946D
:10100000F60161E087E00E946D0164E670E080E037
:1010100090E00E94F60160E087E00E946D0164E6C6
:1010200070E080E090E00E94F60161E086E00E94BE
:101030006D0164E670E080E090E00E94F60160E0FF
:1010400086E00E946D0164E670E080E090E00E941E
:10105000F60161E087E00E946D0164E670E080E0E7
:1010600090E00E94F60160E087E00E946D0164E676
:1010700070E080E090E00E94F60161E088E00E946C
:101080006D0164E670E080E090E00E94F60160E0AF
:1010900088E00E946D0164E670E080E090E00E94CC
:1010A000F60161E087E00E946D0164E670E080E097
:1010B00090E00E94F60160E087E00E946D0164E626
:1010C00070E080E090E00E94F60161E086E00E941E
:1010D0006D0164E670E080E090E00E94F60160E05F
:1010E00086E00E946D0164E670E080E090E00E947E
:1010F000F60161E087E00E946D0164E670E080E047
:1011000090E00E94F60160E087E00E946D0164E6D5
:1011100070E080E090E00E94F601E12CF12C8091DB
:101120004D0290E0E816F9063CF500914E02109150
:101130004F020C0F1D1FF8018281938197FD07C09C
:101140000E94B70560E0F80182810E946D01F801FC
:101150008481958197FD0BC00E94B705F801148129
:10116000812F0E94B70560E0812F0E946D01FFEF83
:10117000EF1AFF0AEC96D3CF0E94D101DC01CB011C
:101180008053984FAF4FBF4F8093500290935102BE
:10119000A0935202B09353021092540210924C0248
:1011A00010928000109282008CE0809381008CE786
:1011B00090E0909389008093880082E080936F0094
:1011C000789468EE73E080E090E00E94F60160E0C1
:1011D00086E00E946D0160E087E00E946D0160E0A2
:1011E00088E00E946D016AE271E085E691E00E946C
:1011F000090667E271E085E691E00E94090661E078
:1012000085E00E946D0164E670E080E090E00E945D
:10121000F60160E085E00E946D0164E670E080E028
:1012200090E00E94F60161E085E00E946D0164E6B5
:1012300070E080E090E00E94F60160E085E00E94AE
:101240006D0164E670E080E090E00E94F60161E0EC
:1012500085E00E946D0164E670E080E090E00E940D
:10126000F60160E085E00E946D01E0914E02F09190
:101270004F02C681D781F894858515867894882396
:1012800001F161E471E085E691E00E940906CE017A
:101290000E941E068EE00E94BA0190936001809326
:1012A0005F016CE471E085E691E00E94090680919F
:1012B0005F01909160010E941E0661E088E00E943B
:1012C0006D01CE0184549109809770F461E089E04A
:1012D0000E946D0161E088E00E946D0160E087E09E
:1012E0000E946D0160E068C0C536D1050CF46AC08B
:1012F00061E087E00E946D0164E670E080E090E0CC
:101300000E94F60160E087E00E946D0164E670E0F3
:1013100080E090E00E94F60161E087E00E946D01AC
:1013200064E670E080E090E00E94F60160E087E013
:101330000E946D0164E670E080E090E00E94F6019A
:1013400061E087E00E946D0164E670E080E090E07B
:101350000E94F60160E087E00E946D0164E670E0A3
:1013600080E090E00E94F60161E087E00E946D015C
:1013700064E670E080E090E00E94F60160E087E0C3
:101380000E946D0180915F0190916001803591050F
:10139000ACF464EF71E080E090E00E94F60160E060
:1013A00089E00E946D0160E088E00E946D0160E0CC
:1013B00087E00E946D0161E086E002C061E089E0A3
:1013C0000E946D010E94630150CF1092680110923B
:1013D000670188EE93E0A0E0B0E08093690190930C
:1013E0006A01A0936B01B0936C018AE091E0909345
:1013F00066018093650185EC90E090937201809383
:10140000710184EC90E0909374018093730180ECFF
:1014100090E0909376018093750181EC90E0909339
:1014200078018093770182EC90E090937A01809329
:10143000790186EC90E090937C0180937B0110927F
:101440007E0110927F011092800110928101109212
:1014500008021092090210920A0210920B021092D6
:101460000C0210920D0210920E0210920F021092B6
:101470001002109211021092120210921302109296
:101480001402109215021092160210921702109276
:1014900056021092550282E090E090935802809399
:1014A00057028CE492E090934B0280934A0281E0D1
:1014B00080934D028CE390E00E94130BFC018EE0C0
:1014C00090E0918380838FEF9FEF93838283958356
:1014D000848382E090E0A0E0B0E0808F918FA28FC3
:1014E000B38FDF015C96CF01C0961D921D92A817A5
:1014F000B907D9F71586178216828EEE92E0938788
:101500008287148610AA11AA12AA13AA148A158A0D
:10151000168A178A80E092E095AB84AB97AB86ABD6
:1015200086E292E0918B808B91AF80AF84E690E071
:10153000938B828B81E082AF13AE17861686F09371
:101540004F02E0934E020895A1E21A2EAA1BBB1B84
:10155000FD010DC0AA1FBB1FEE1FFF1FA217B3077F
:10156000E407F50720F0A21BB30BE40BF50B661F95
:10157000771F881F991F1A9469F760957095809559
:1015800090959B01AC01BD01CF010895AA1BBB1B27
:1015900051E107C0AA1FBB1FA617B70710F0A61B73
:1015A000B70B881F991F5A95A9F780959095BC0194
:1015B000CD01089597FB072E16F4009407D077FD10
:1015C00009D00E94C60A07FC05D03EF4909581958B
:1015D0009F4F0895709561957F4F0895052E97FB55
:1015E0001EF400940E94050B57FD07D00E94A40A28
:1015F00007FC03D04EF40C94050B509540953095A4
:1016000021953F4F4F4F5F4F08959095809570956E
:1016100061957F4F8F4F9F4F0895EE0FFF1F0590ED
:10162000F491E02D09940F931F93CF93DF938230B1
:10163000910510F482E090E0E0915B02F0915C0291
:1016400020E030E0A0E0B0E0309719F14081518116
:101650000281138148175907C8F08417950769F468
:10166000109731F012960C93129713961C9327C083
:1016700000935B0210935C0222C02115310519F022
:101680004217530718F49A01BD01EF01DF01F80179
:10169000DBCF21153105F9F0281B390B243031053A
:1016A00080F48A819B816115710521F0FB01938390
:1016B000828304C090935C0280935B02FE013296A9
:1016C00044C0FE01E20FF31F819391932250310930
:1016D000398328833AC02091590230915A02232B32
:1016E00041F4209102013091030130935A0220937A
:1016F000590220910001309101012115310541F479
:101700002DB73EB74091040150910501241B350BC4
:10171000E0915902F0915A02E217F307A0F42E1B50
:101720003F0B2817390778F0AC014E5F5F4F241745
:10173000350748F04E0F5F1F50935A0240935902ED
:101740008193919302C0E0E0F0E0CF01DF91CF916F
:101750001F910F910895CF93DF93009709F481C0F3
:10176000FC01329713821282A0915B02B0915C025D
:10177000109781F420813181820F931F20915902AB
:1017800030915A022817390751F5F0935A02E09325
:10179000590267C0ED0120E030E0CE17DF0740F4CA
:1017A0004A815B819E0141155105F1F0EA01F5CFB7
:1017B000D383C28340815181840F951FC817D907F5
:1017C00059F488819981840F951F029691838083B3
:1017D0008A819B81938382832115310529F4F093BB
:1017E0005C02E0935B023DC0E901FB83EA8349911F
:1017F0005991C40FD51FEC17FD0761F480819181C9
:10180000840F951F0296E9019983888382819381D1
:101810009B838A83E0E0F0E012968D919C91139770
:10182000009719F0FD01DC01F7CF8D919C91119784
:101830009D012E5F3F4F820F931F209159023091DF
:101840005A022817390769F4309729F410925C027C
:1018500010925B0202C013821282B0935A02A093CC
:101860005902DF91CF91089581E090E0F8940C94B3
:06187000390CF894FFCFD3
:1018760000005D02800000000000F40063058B009C
:101886004101BC009A00AE00564D4450565F317C73
:10189600315F564D4450560D0A0053656E736F7294
:1018A6002048617320496E697469616C697A656460
:1018B600002D2D2D2D2D42504D3A200073656E734F
:0A18C6006F7256616C75653D0000FD
:00000001FF
